{
  "_format": "hh-sol-artifact-1",
  "contractName": "Voting",
  "sourceName": "contracts/Voting.sol",
  "abi": [
    {
      "inputs": [],
      "stateMutability": "nonpayable",
      "type": "constructor"
    },
    {
      "anonymous": false,
      "inputs": [
        {
          "indexed": false,
          "internalType": "uint256",
          "name": "id",
          "type": "uint256"
        },
        {
          "indexed": false,
          "internalType": "string",
          "name": "name",
          "type": "string"
        }
      ],
      "name": "CandidateRemoved",
      "type": "event"
    },
    {
      "inputs": [
        {
          "internalType": "string",
          "name": "_name",
          "type": "string"
        }
      ],
      "name": "addCandidate",
      "outputs": [],
      "stateMutability": "nonpayable",
      "type": "function"
    },
    {
      "inputs": [],
      "name": "admin",
      "outputs": [
        {
          "internalType": "address",
          "name": "",
          "type": "address"
        }
      ],
      "stateMutability": "view",
      "type": "function"
    },
    {
      "inputs": [
        {
          "internalType": "uint256",
          "name": "",
          "type": "uint256"
        }
      ],
      "name": "candidates",
      "outputs": [
        {
          "internalType": "uint256",
          "name": "id",
          "type": "uint256"
        },
        {
          "internalType": "string",
          "name": "name",
          "type": "string"
        },
        {
          "internalType": "uint256",
          "name": "voteCount",
          "type": "uint256"
        }
      ],
      "stateMutability": "view",
      "type": "function"
    },
    {
      "inputs": [],
      "name": "candidatesCount",
      "outputs": [
        {
          "internalType": "uint256",
          "name": "",
          "type": "uint256"
        }
      ],
      "stateMutability": "view",
      "type": "function"
    },
    {
      "inputs": [],
      "name": "endVoting",
      "outputs": [],
      "stateMutability": "nonpayable",
      "type": "function"
    },
    {
      "inputs": [],
      "name": "getAllCandidates",
      "outputs": [
        {
          "components": [
            {
              "internalType": "uint256",
              "name": "id",
              "type": "uint256"
            },
            {
              "internalType": "string",
              "name": "name",
              "type": "string"
            },
            {
              "internalType": "uint256",
              "name": "voteCount",
              "type": "uint256"
            }
          ],
          "internalType": "struct Voting.Candidate[]",
          "name": "",
          "type": "tuple[]"
        }
      ],
      "stateMutability": "view",
      "type": "function"
    },
    {
      "inputs": [
        {
          "internalType": "uint256",
          "name": "_id",
          "type": "uint256"
        }
      ],
      "name": "getCandidate",
      "outputs": [
        {
          "components": [
            {
              "internalType": "uint256",
              "name": "id",
              "type": "uint256"
            },
            {
              "internalType": "string",
              "name": "name",
              "type": "string"
            },
            {
              "internalType": "uint256",
              "name": "voteCount",
              "type": "uint256"
            }
          ],
          "internalType": "struct Voting.Candidate",
          "name": "",
          "type": "tuple"
        }
      ],
      "stateMutability": "view",
      "type": "function"
    },
    {
      "inputs": [
        {
          "internalType": "address",
          "name": "",
          "type": "address"
        }
      ],
      "name": "hasVoted",
      "outputs": [
        {
          "internalType": "bool",
          "name": "",
          "type": "bool"
        }
      ],
      "stateMutability": "view",
      "type": "function"
    },
    {
      "inputs": [
        {
          "internalType": "uint256",
          "name": "_candidateId",
          "type": "uint256"
        }
      ],
      "name": "removeCandidate",
      "outputs": [],
      "stateMutability": "nonpayable",
      "type": "function"
    },
    {
      "inputs": [],
      "name": "startVoting",
      "outputs": [],
      "stateMutability": "nonpayable",
      "type": "function"
    },
    {
      "inputs": [],
      "name": "totalVotes",
      "outputs": [
        {
          "internalType": "uint256",
          "name": "",
          "type": "uint256"
        }
      ],
      "stateMutability": "view",
      "type": "function"
    },
    {
      "inputs": [
        {
          "internalType": "uint256",
          "name": "_candidateId",
          "type": "uint256"
        }
      ],
      "name": "vote",
      "outputs": [],
      "stateMutability": "nonpayable",
      "type": "function"
    },
    {
      "inputs": [],
      "name": "votingOpen",
      "outputs": [
        {
          "internalType": "bool",
          "name": "",
          "type": "bool"
        }
      ],
      "stateMutability": "view",
      "type": "function"
    }
  ],
  "bytecode": "0x6080604052348015600f57600080fd5b50336000806101000a81548173ffffffffffffffffffffffffffffffffffffffff021916908373ffffffffffffffffffffffffffffffffffffffff1602179055506001600060146101000a81548160ff0219169083151502179055506118d58061007a6000396000f3fe608060405234801561001057600080fd5b50600436106100cf5760003560e01c80632e6997fe1161008c578063462e91ec11610066578063462e91ec14610202578063a95824b41461021e578063c3403ddf1461023c578063f851a44014610246576100cf565b80632e6997fe146101825780633477ee2e146101a057806335b8e820146101d2576100cf565b80630121b93f146100d457806309e9d7e2146100f057806309eef43e1461010c5780630d15fd771461013c5780631ec6b60a1461015a5780632d35a8a214610164575b600080fd5b6100ee60048036038101906100e99190610c5d565b610264565b005b61010a60048036038101906101059190610c5d565b61042f565b005b61012660048036038101906101219190610ce8565b6105da565b6040516101339190610d30565b60405180910390f35b6101446105fa565b6040516101519190610d5a565b60405180910390f35b610162610600565b005b61016c6106ab565b6040516101799190610d5a565b60405180910390f35b61018a6106b1565b6040516101979190610f26565b60405180910390f35b6101ba60048036038101906101b59190610c5d565b610826565b6040516101c993929190610f92565b60405180910390f35b6101ec60048036038101906101e79190610c5d565b6108d8565b6040516101f99190611020565b60405180910390f35b61021c60048036038101906102179190611177565b6109ab565b005b610226610ab4565b6040516102339190610d30565b60405180910390f35b610244610ac7565b005b61024e610b71565b60405161025b91906111cf565b60405180910390f35b600060149054906101000a900460ff166102b3576040517f08c379a00000000000000000000000000000000000000000000000000000000081526004016102aa90611236565b60405180910390fd5b600160003373ffffffffffffffffffffffffffffffffffffffff1673ffffffffffffffffffffffffffffffffffffffff16815260200190815260200160002060009054906101000a900460ff1615610340576040517f08c379a0000000000000000000000000000000000000000000000000000000008152600401610337906112a2565b60405180910390fd5b60008111801561035257506003548111155b610391576040517f08c379a00000000000000000000000000000000000000000000000000000000081526004016103889061130e565b60405180910390fd5b60018060003373ffffffffffffffffffffffffffffffffffffffff1673ffffffffffffffffffffffffffffffffffffffff16815260200190815260200160002060006101000a81548160ff02191690831515021790555060026000828152602001908152602001600020600201600081548092919061040f9061135d565b9190505550600460008154809291906104279061135d565b919050555050565b60008054906101000a900473ffffffffffffffffffffffffffffffffffffffff1673ffffffffffffffffffffffffffffffffffffffff163373ffffffffffffffffffffffffffffffffffffffff16146104bd576040517f08c379a00000000000000000000000000000000000000000000000000000000081526004016104b490611417565b60405180910390fd5b6000811180156104cf57506003548111155b61050e576040517f08c379a00000000000000000000000000000000000000000000000000000000081526004016105059061130e565b60405180910390fd5b60035481146105875760026000600354815260200190815260200160002060026000838152602001908152602001600020600082015481600001556001820181600101908161055d9190611659565b50600282015481600201559050508060026000838152602001908152602001600020600001819055505b6002600060035481526020019081526020016000206000808201600090556001820160006105b59190610b95565b60028201600090555050600360008154809291906105d290611741565b919050555050565b60016020528060005260406000206000915054906101000a900460ff1681565b60045481565b60008054906101000a900473ffffffffffffffffffffffffffffffffffffffff1673ffffffffffffffffffffffffffffffffffffffff163373ffffffffffffffffffffffffffffffffffffffff161461068e576040517f08c379a000000000000000000000000000000000000000000000000000000000815260040161068590611417565b60405180910390fd5b6001600060146101000a81548160ff021916908315150217905550565b60035481565b6060600060035467ffffffffffffffff8111156106d1576106d061104c565b5b60405190808252806020026020018201604052801561070a57816020015b6106f7610bd5565b8152602001906001900390816106ef5790505b5090506000600190505b600354811161081e57600260008281526020019081526020016000206040518060600160405290816000820154815260200160018201805461075590611466565b80601f016020809104026020016040519081016040528092919081815260200182805461078190611466565b80156107ce5780601f106107a3576101008083540402835291602001916107ce565b820191906000526020600020905b8154815290600101906020018083116107b157829003601f168201915b50505050508152602001600282015481525050826001836107ef919061176a565b81518110610800576107ff61179e565b5b602002602001018190525080806108169061135d565b915050610714565b508091505090565b600260205280600052604060002060009150905080600001549080600101805461084f90611466565b80601f016020809104026020016040519081016040528092919081815260200182805461087b90611466565b80156108c85780601f1061089d576101008083540402835291602001916108c8565b820191906000526020600020905b8154815290600101906020018083116108ab57829003601f168201915b5050505050908060020154905083565b6108e0610bd5565b600260008381526020019081526020016000206040518060600160405290816000820154815260200160018201805461091890611466565b80601f016020809104026020016040519081016040528092919081815260200182805461094490611466565b80156109915780601f1061096657610100808354040283529160200191610991565b820191906000526020600020905b81548152906001019060200180831161097457829003601f168201915b505050505081526020016002820154815250509050919050565b60008054906101000a900473ffffffffffffffffffffffffffffffffffffffff1673ffffffffffffffffffffffffffffffffffffffff163373ffffffffffffffffffffffffffffffffffffffff1614610a39576040517f08c379a0000000000000000000000000000000000000000000000000000000008152600401610a3090611417565b60405180910390fd5b60036000815480929190610a4c9061135d565b9190505550604051806060016040528060035481526020018281526020016000815250600260006003548152602001908152602001600020600082015181600001556020820151816001019081610aa391906117cd565b506040820151816002015590505050565b600060149054906101000a900460ff1681565b60008054906101000a900473ffffffffffffffffffffffffffffffffffffffff1673ffffffffffffffffffffffffffffffffffffffff163373ffffffffffffffffffffffffffffffffffffffff1614610b55576040517f08c379a0000000000000000000000000000000000000000000000000000000008152600401610b4c90611417565b60405180910390fd5b60008060146101000a81548160ff021916908315150217905550565b60008054906101000a900473ffffffffffffffffffffffffffffffffffffffff1681565b508054610ba190611466565b6000825580601f10610bb35750610bd2565b601f016020900490600052602060002090810190610bd19190610bf6565b5b50565b60405180606001604052806000815260200160608152602001600081525090565b5b80821115610c0f576000816000905550600101610bf7565b5090565b6000604051905090565b600080fd5b600080fd5b6000819050919050565b610c3a81610c27565b8114610c4557600080fd5b50565b600081359050610c5781610c31565b92915050565b600060208284031215610c7357610c72610c1d565b5b6000610c8184828501610c48565b91505092915050565b600073ffffffffffffffffffffffffffffffffffffffff82169050919050565b6000610cb582610c8a565b9050919050565b610cc581610caa565b8114610cd057600080fd5b50565b600081359050610ce281610cbc565b92915050565b600060208284031215610cfe57610cfd610c1d565b5b6000610d0c84828501610cd3565b91505092915050565b60008115159050919050565b610d2a81610d15565b82525050565b6000602082019050610d456000830184610d21565b92915050565b610d5481610c27565b82525050565b6000602082019050610d6f6000830184610d4b565b92915050565b600081519050919050565b600082825260208201905092915050565b6000819050602082019050919050565b610daa81610c27565b82525050565b600081519050919050565b600082825260208201905092915050565b60005b83811015610dea578082015181840152602081019050610dcf565b60008484015250505050565b6000601f19601f8301169050919050565b6000610e1282610db0565b610e1c8185610dbb565b9350610e2c818560208601610dcc565b610e3581610df6565b840191505092915050565b6000606083016000830151610e586000860182610da1565b5060208301518482036020860152610e708282610e07565b9150506040830151610e856040860182610da1565b508091505092915050565b6000610e9c8383610e40565b905092915050565b6000602082019050919050565b6000610ebc82610d75565b610ec68185610d80565b935083602082028501610ed885610d91565b8060005b85811015610f145784840389528151610ef58582610e90565b9450610f0083610ea4565b925060208a01995050600181019050610edc565b50829750879550505050505092915050565b60006020820190508181036000830152610f408184610eb1565b905092915050565b600082825260208201905092915050565b6000610f6482610db0565b610f6e8185610f48565b9350610f7e818560208601610dcc565b610f8781610df6565b840191505092915050565b6000606082019050610fa76000830186610d4b565b8181036020830152610fb98185610f59565b9050610fc86040830184610d4b565b949350505050565b6000606083016000830151610fe86000860182610da1565b50602083015184820360208601526110008282610e07565b91505060408301516110156040860182610da1565b508091505092915050565b6000602082019050818103600083015261103a8184610fd0565b905092915050565b600080fd5b600080fd5b7f4e487b7100000000000000000000000000000000000000000000000000000000600052604160045260246000fd5b61108482610df6565b810181811067ffffffffffffffff821117156110a3576110a261104c565b5b80604052505050565b60006110b6610c13565b90506110c2828261107b565b919050565b600067ffffffffffffffff8211156110e2576110e161104c565b5b6110eb82610df6565b9050602081019050919050565b82818337600083830152505050565b600061111a611115846110c7565b6110ac565b90508281526020810184848401111561113657611135611047565b5b6111418482856110f8565b509392505050565b600082601f83011261115e5761115d611042565b5b813561116e848260208601611107565b91505092915050565b60006020828403121561118d5761118c610c1d565b5b600082013567ffffffffffffffff8111156111ab576111aa610c22565b5b6111b784828501611149565b91505092915050565b6111c981610caa565b82525050565b60006020820190506111e460008301846111c0565b92915050565b7f566f74696e6720697320636c6f73656400000000000000000000000000000000600082015250565b6000611220601083610f48565b915061122b826111ea565b602082019050919050565b6000602082019050818103600083015261124f81611213565b9050919050565b7f596f75206861766520616c726561647920766f74656400000000000000000000600082015250565b600061128c601683610f48565b915061129782611256565b602082019050919050565b600060208201905081810360008301526112bb8161127f565b9050919050565b7f496e76616c69642063616e646964617465000000000000000000000000000000600082015250565b60006112f8601183610f48565b9150611303826112c2565b602082019050919050565b60006020820190508181036000830152611327816112eb565b9050919050565b7f4e487b7100000000000000000000000000000000000000000000000000000000600052601160045260246000fd5b600061136882610c27565b91507fffffffffffffffffffffffffffffffffffffffffffffffffffffffffffffffff820361139a5761139961132e565b5b600182019050919050565b7f4f6e6c792061646d696e2063616e20706572666f726d2074686973206163746960008201527f6f6e000000000000000000000000000000000000000000000000000000000000602082015250565b6000611401602283610f48565b915061140c826113a5565b604082019050919050565b60006020820190508181036000830152611430816113f4565b9050919050565b7f4e487b7100000000000000000000000000000000000000000000000000000000600052602260045260246000fd5b6000600282049050600182168061147e57607f821691505b60208210810361149157611490611437565b5b50919050565b6000815490506114a681611466565b9050919050565b60008190508160005260206000209050919050565b60006020601f8301049050919050565b600082821b905092915050565b60006008830261150f7fffffffffffffffffffffffffffffffffffffffffffffffffffffffffffffffff826114d2565b61151986836114d2565b95508019841693508086168417925050509392505050565b6000819050919050565b600061155661155161154c84610c27565b611531565b610c27565b9050919050565b6000819050919050565b6115708361153b565b61158461157c8261155d565b8484546114df565b825550505050565b600090565b61159961158c565b6115a4818484611567565b505050565b5b818110156115c8576115bd600082611591565b6001810190506115aa565b5050565b601f82111561160d576115de816114ad565b6115e7846114c2565b810160208510156115f6578190505b61160a611602856114c2565b8301826115a9565b50505b505050565b600082821c905092915050565b600061163060001984600802611612565b1980831691505092915050565b6000611649838361161f565b9150826002028217905092915050565b81810361166757505061173f565b61167082611497565b67ffffffffffffffff8111156116895761168861104c565b5b6116938254611466565b61169e8282856115cc565b6000601f8311600181146116cd57600084156116bb578287015490505b6116c5858261163d565b865550611738565b601f1984166116db876114ad565b96506116e6866114ad565b60005b8281101561170e578489015482556001820191506001850194506020810190506116e9565b8683101561172b5784890154611727601f89168261161f565b8355505b6001600288020188555050505b5050505050505b565b600061174c82610c27565b91506000820361175f5761175e61132e565b5b600182039050919050565b600061177582610c27565b915061178083610c27565b92508282039050818111156117985761179761132e565b5b92915050565b7f4e487b7100000000000000000000000000000000000000000000000000000000600052603260045260246000fd5b6117d682610db0565b67ffffffffffffffff8111156117ef576117ee61104c565b5b6117f98254611466565b6118048282856115cc565b600060209050601f8311600181146118375760008415611825578287015190505b61182f858261163d565b865550611897565b601f198416611845866114ad565b60005b8281101561186d57848901518255600182019150602085019450602081019050611848565b8683101561188a5784890151611886601f89168261161f565b8355505b6001600288020188555050505b50505050505056fea2646970667358221220788b386da10504eaa9a14a2b5ca9ce278280a03161a4adb0d436e40d57286ffd64736f6c634300081c0033",
  "linkReferences": {},
  "deployedLinkReferences": {}
}